:100000000C9450020C9488020C9488020C94880280
:100010000C9488020C9488020C9488020C94880238
:100020000C9488020C9488020C94B3300C948531A3
:100030000C948B2B0C9488020C9488020C948802EC
:100040000C9488020C9488020C9488020C94880208
:100050000C9488020C942F2C0C9488020C94880227
:100060000C9488020C9488020C9488020C948802E8
:100070000C9488020C9488020C9488020C948802D8
:100080000C9488020C9488020C9488020C948802C8
:100090000C9488020C9488020C9488020C948802B8
:1000A0000C9488020C9488020C9488025105510526
:1000B0007D057D05E50503061B071B070E06A70644
:1000C000B806B806F23119321133193211336532DC
:1000D00088321133DF32EE32290014001A00080092
:1000E000150017001C0018000C00120013002A0055
:1000F0002B0004001600070009000A000B000D0089
:100100000E000F0033003400E1001D001B0006004C
:1001100019000500110010003600370038002800D3
:10012000E000E300E200035802582C0000000158F0
:100130005000510052004F0035001E001F002000EB
:1001400021002200230024002500260027004C0067
:1001500039000100010001000100010001002D0033
:100160002E002F00300031000100010001000100CD
:100170000100010001000100010052000100010026
:100180000100010001000100010001000000010068
:10019000500051004F0076003A003B003C003D000B
:1001A0003E003F0040004100420043004400450043
:1001B000A800A900BD00AB00460049004A004B0062
:1001C000C65CC85CCA5CCC5C0100AA00BE00AC0086
:1001D000470053004D004E00C75CC95CCB5CCD5C52
:1001E00001000100010001000100480000000100C1
:1001F000C35CC45CC55C005C01001E001F002000E5
:10020000210022001B000C0018000000000000006C
:10021000010014001A000800150017003A004400FD
:100220000F0000000000000001000400160007009D
:1002300009000A003C003B003F00000000000000F5
:10024000010012001300060001002C000000010054
:1002500040004100000003580001010101010101BB
:10026000010102020202020202020203030303036B
:10027000030303040404040404040505050505063A
:1002800006060606070707070708080808090909F8
:10029000090A0A0A0B0B0B0C0C0C0D0D0D0E0E0EA1
:1002A0000F0F0F1010111111121213131414151532
:1002B00016161717181819191A1A1B1B1C1D1D1EA4
:1002C0001E1F2020212222232424252626272829F8
:1002D000292A2B2C2D2D2E2F303132323334353626
:1002E0003738393A3B3C3D3E3F4041424344454626
:1002F0004748494A4C4D4E4F505153545556585902
:100300005A5B5D5E5F616264656668696B6C6D6FA8
:100310007072737577787A7B7D7E8082838587881B
:100320008A8C8E8F91939596989A9C9EA0A2A3A555
:10033000A7A9ABADAFB1B3B5B7BABCBEC0C2C4C656
:10034000C9CBCDCFD1D4D6D8DBDDDFE2E4E7E9EB12
:10035000EEF0F3F5F8FAFDFF220342004D00340001
:100360003000200048006F007400730077006100C7
:1003700070002000520047004200000016034B00AE
:100380005000520065007000750062006C0069004A
:10039000630000000403090409023B00020100A0FD
:1003A000FA09040000010301010009211101000103
:1003B0002240000705810308000109040100010330
:1003C000000000092111010001227B0007058203C2
:1003D0002000011201000200000008504B303401DF
:1003E000000102000105010902A10185020901A124
:1003F00000050919012908150025019508750181D5
:10040000020501093009311581257F9502750881A2
:100410000609381581257F950175088106050C0AA6
:1004200038021581257F950175088106C0C0050138
:100430000980A101850319012AB700150126B7001B
:10044000950175108100C0050C0901A101850419F1
:10045000012AA002150126A002950175108100C095
:1004600005010906A101050719E029E71500250185
:10047000950875018102950175088101050719002C
:1004800029FF150026FF009506750881000508194B
:10049000012905950575019102950175039101C02A
:1004A00011241FBECFEFDAE0DEBFCDBF04B603FEDE
:1004B00018C08091290590912A05A0912B05B09133
:1004C0002C058730904BA740B04B59F4109229056A
:1004D00010922A0510922B0510922C05E0E0F8E30B
:1004E000099512E0A0E0B1E0E8E3F9E602C005906A
:1004F0000D92AA37B107D9F725E0AAE7B2E001C00B
:100500001D92A932B207E1F70E9430130C949A347D
:100510000C94000081E00E947C260C946F2B80E0FC
:100520000E947C260C946E2B81E0089581E0089552
:100530000C94960208950C949A021F93CF93DF9324
:1005400000D000D01F92CDB7DEB749835A836B83AA
:1005500030917D0289819A81311114C0662359F04E
:10056000222349F00E945809182F682F89819A8107
:100570000E94010903C00E942C09182F69817A8109
:10058000812F04C00E94580969817A810F900F90D1
:100590000F900F900F90DF91CF911F910C949B10B3
:1005A000FC01262F408151816281738184810C94EA
:1005B0009D0281E00895CF93DF93EC0160E00E94FB
:1005C000D002BE01DF91CF910C949B020C94E111FB
:1005D0000C94DD1108950E94AB070E94EA022FEFF0
:1005E00084E39CE0215080409040E1F700C000008F
:1005F0000C94552C0F931F93CF93DF938C0161E0E4
:100600000E94D002EC01B8010E949802882309F4EC
:1006100044C0B801CE010E945A2A8823F1F1B801E2
:10062000CE010E946E288823C1F1B801CE010E943C
:10063000B629882391F1B801CE010E94A62788230C
:1006400061F1F8018281882309F1CB358DE5D80766
:10065000C1F050F4C115FCE5DF0781F0CF3DDC456A
:10066000A9F40E948F0E19C0CC35EDE5DE0761F0CC
:10067000CD35DD4559F40E94D20D08C00E94EB0231
:100680000CC00E94DB0D02C00E94DE0DC801DF918C
:10069000CF911F910F910C94940280E0DF91CF9144
:1006A0001F910F9108950E948A020E947D250E9449
:1006B000740381E00C947C260E94770380E00E9402
:1006C0007C260C948F0208950C94630381E00895B6
:1006D0000C9466030895CF93C82F0E9464038C2F57
:1006E0000E946803CF91089580E00C946B030E94F0
:1006F000B62A0C946B030E94B62A90917C0289174B
:1007000021F080937C020C946B030895CF93DF93C8
:10071000CDB7DEB72B970FB6F894DEBF0FBECDBFB7
:100720004F83588769877A878B8761110E941E0DD6
:100730009E012F5F3F4F86E0F90111928A95E9F7FC
:1007400085E0FE013796D90101900D928A95E1F777
:1007500089819A814C815D81452B31F09F3F31F435
:1007600091E08F3F19F403C091E001C090E090FF49
:1007700009C049815A816B817C818D819E810E9453
:100780003F0C05C0C9010E94D9028111F2CF2B96FE
:100790000FB6F894DEBF0FBECDBFDF91CF910895A5
:1007A000FC01808191810E949A090895CF9388234A
:1007B00009F4A4C0C82F8238C1F40E94B62A81FD72
:1007C0009DC069E38091D5019091D6010E94492B8B
:1007D0000E94400D2FEF81EE94E021508040904028
:1007E000E1F700C0000069E319C0833801F50E94F9
:1007F000B62A80FD83C063E58091D5019091D60132
:100800000E94492B0E94400D2FEF81EE94E0215071
:1008100080409040E1F700C0000063E58091D50181
:100820009091D6010E944B2BCF910C94400D8438AF
:10083000C1F40E94B62A82FD61C067E48091D501AF
:100840009091D6010E94492B0E94400D2FEF81EE1E
:1008500094E0215080409040E1F700C0000067E440
:10086000DDCF8CEF8C0F813AD0F46C2F8091D501C5
:100870009091D6010E94132B882349F06C2F809110
:10088000D5019091D6010E944B2B0E94400D6C2FF8
:100890008091D5019091D6010E94492BC5CF80E26D
:1008A0008C0F883048F4C77081E001C0880FCA956A
:1008B000EAF70E94010DB8CFEBE5EC0FE33040F40E
:1008C000F0E0EB5DFD4F808190E0CF910C94DB2A4E
:1008D000E8E5EC0FE73150F4F0E0EE0FFF1FE950D0
:1008E000FE4F80819181CF910C94F12ACD3E30F062
:1008F0008C2F0E94B513CF910C948714CF9108953B
:10090000882309F464C0823879F40E94B62A81FFF2
:100910005EC069E38091D5019091D6010E94492B78
:100920000E94400D69E310C08338B1F40E94B62ADA
:1009300080FF4DC063E58091D5019091D6010E9462
:10094000492B0E94400D63E58091D5019091D6011D
:100950000E944B2B0C94400D843879F40E94B62AE7
:1009600082FF35C067E48091D5019091D6010E9445
:10097000492B0E94400D67E4E7CF9CEF980F913A16
:1009800010F4682FE1CF90E2980F983050F4877000
:1009900091E001C0990F8A95EAF7892F0E94070D0F
:1009A000D9CF9BE5980F933020F480E090E00C9431
:1009B000DB2A98E5980F973120F480E090E00C94C2
:1009C000F12A8D3E20F00E9410140C948714089593
:1009D0001F93CF93DF93182FEB010E94D60320972C
:1009E00041F08FE99FE00197F1F700C000002197E7
:1009F000F6CF812FDF91CF911F910C948004893322
:100A000019F060E070E002C060E570E00C94E8046A
:100A1000882321F00E94010D0C94400D0895882335
:100A200021F00E94070D0C94400D0895CF92DF92A3
:100A3000EF92FF920F931F93CF93DF937C01D62FFA
:100A4000C72FFC011281058102950F700E94F70CDF
:100A50008823B9F01123A9F08C2F807F803421F0F6
:100A600080E28D0F883068F08091350482FD09C0E6
:100A700082E00E94A00D0E94F70C91E0D82ED926AA
:100A800001C0D12CCC2EC2948FE0C8228C2D90E0D6
:100A90008C30910508F0CFC1FC01EA5AFF4F0C944D
:100AA000AE338C2F807FCF70882311F0C295C07F2A
:100AB000112399F0CC2309F4AAC180E28D0F88306C
:100AC00010F0D11104C08C2F0E94010D03C08C2F97
:100AD0000E94110D0E94400D9AC18D2F0E9480042A
:100AE000CC2309F4A8C180E28D0F883038F1DD23D2
:100AF00029F18C2F0E94170D24C08C2F807FCF707E
:100B0000803211F0C295C07FDD2319F0D130A1F100
:100B10003DC08091350482FF17C0112349F0CC23DA
:100B200029F08C2F0E94010D0E94400D80E070C1C1
:100B300080E00E948004CC2309F47DC18C2F0E94A8
:100B4000070D0E94400D77C1112371F0002341F081
:100B5000013031F40E94210D8C2B0E94290D6BC1B4
:100B60000E94210D8C2B1DC0002319F0013009F4C7
:100B700062C10E94360D25C0112321F0063008F015
:100B80005AC10EC0053008F056C11BC0112361F0D8
:100B9000002331F0F701858180FF39C18F70858393
:100BA0008C2F0E94080547C1002359F0D93309F062
:100BB0003FC1FFEF07EE13E0F15000401040E1F7B6
:100BC00035C18C2F0E940F0536C18C2F86958695D6
:100BD000837019F0813061F02EC1112321F08D2F27
:100BE0009C2F937002C080E090E00E94DB2A2BC112
:100BF000112321F08D2F9C2F937002C080E090E094
:100C00000E94F12A20C18D2F112319F00E94B513E3
:100C100002C00E9410140E94871415C18C2F83708B
:100C200009F047C011110BC12D2F22952695277071
:100C3000220F220F6D2F6F70862F90E0A0E0B0E0A2
:100C4000022E04C0880F991FAA1FBB1F0A94D2F757
:100C5000D4FF10C04FE050E060E070E004C0440FEB
:100C6000551F661F771F2A95D2F7409550956095BE
:100C7000709503C040E050E0BA01C695C695C370B8
:100C80008A019B01082B192B2A2B3B2BC901B80188
:100C9000C23049F058F4C13019F00E941708CFC093
:100CA0000E940508CCC00E942908C9C00E94030800
:100CB000C6C0112319F08C2F817001C0869588233E
:100CC00009F4BDC02D2F229526952770220F220FE3
:100CD0006D2F6F70862F90E0A0E0B0E0022E04C070
:100CE000880F991FAA1FBB1F0A94D2F7D4FF10C008
:100CF0004FE050E060E070E004C0440F551F661FF5
:100D0000771F2A95D2F7409550956095709503C04E
:100D100040E050E0BA01C695C695C3708A019B01B8
:100D2000082B192B2A2B3B2BC901B801C23049F0E3
:100D300058F4C13019F00E94DC0881C00E94CA0832
:100D40007EC00E94EE087BC00E943D0878C0CF7034
:100D5000112339F08C2F0E9463088D2F0E94080503
:100D60006EC08D2F0E940F058C2F0E94840867C0D3
:100D7000D23F21F128F4D03F41F0D13FC1F043C030
:100D8000D33F19F1D43F79F03EC0112341F0053033
:100D900008F051C08C2F8F710E94A9084CC00630FA
:100DA00008F049C0F7CF8091350482FF18C01123A5
:100DB00039F08C2F8F710E9463083DC01123C9F355
:100DC0008C2F8F710E94840836C0112329F08C2F3C
:100DD0008F710E944E082FC00E9449082CC0112319
:100DE00049F0CF718C2F0E94630863E08C2F0E9422
:100DF000850D21C081E00E94A00D0230E0F082E06C
:100E00000E94A00D18C0112331F0002391F28D2F04
:100E10000E94D60310C0002399F2D93349F41FEF82
:100E200027EE33E0115020403040E1F700C00000D1
:100E30008D2F0E94800488EF8C0D843020F40E9456
:100E4000B62A0E946B03DD20C9F00E94F30C80FDDE
:100E500015C0F70112820E94ED0C0E946308C701C1
:100E60000E945F070E94ED0CDF91CF911F910F91BF
:100E7000FF90EF90DF90CF900C948408DF91CF919A
:100E80001F910F91FF90EF90DF90CF9008950F93F7
:100E90001F93CF93DF93EC01688179818A810E944F
:100EA000A5098C010E9400090E94F107B801CE013A
:100EB0000E941605DF91CF911F910F910895CF9356
:100EC000DF93EC01988189812B813C81232B31F0C8
:100ED0008F3F31F481E09F3F19F403C081E001C0EE
:100EE00080E080FD1DC0CE010E94FA02811110C079
:100EF0000E94F70C8823A1F08A81882389F08091D1
:100F0000350482FD0DC082E0DF91CF910C94A00DDD
:100F1000CE010E944707CE01DF91CF910C94DB02F6
:100F2000DF91CF91089580E090E00E94DB2A80E07D
:100F300090E00E94F12A0E941E0D0E94400D0E9426
:100F4000B8150C9487148091D5019091D6010E9418
:100F50004D2B0C9493070E940E0D0C94A3079295B1
:100F60009F70963079F010F4925001C09A509230F0
:100F700068F4803F69F018F4883E40F409C0843F6B
:100F800029F406C0883E20F0813F11F080E00895EA
:100F900081E00895FC01808191810E949A090E945C
:100FA000AF070895CF93DF9300D000D01F92CDB745
:100FB000DEB70F900F900F900F900F90DF91CF91B1
:100FC0000895CF93DF9300D000D000D0CDB7DEB727
:100FD00026960FB6F894DEBF0FBECDBFDF91CF913E
:100FE0000895089508950C94F2070C94F3070E9455
:100FF000F5076093A0027093A1028093A2029093E0
:10100000A3020C9493070C94F7070F931F9300917E
:10101000A0021091A1022091A2023091A302602BA4
:10102000712B822B932B1F910F910C94F7070F9329
:101030001F930091A0021091A1022091A202309171
:10104000A30260237123822393231F910F910C9499
:10105000F7070F931F930091A0021091A102209116
:10106000A2023091A30260277127822793271F9144
:101070000F910C94F7070C94F2070E943B086093C1
:101080009C0270939D0280939E0290939F020C9409
:10109000930760E070E0CB010C943D080F931F9321
:1010A00041E050E060E070E08A019B0104C0000F65
:1010B000111F221F331F8A95D2F7C901B8011F9152
:1010C0000F910C943D080F931F9341E050E060E0B6
:1010D00070E004C0440F551F661F771F8A95D2F732
:1010E00080919C0290919D02A0919E02B0919F02DE
:1010F0008A019B01082B192B2A2B3B2BC901B80114
:101100001F910F910C943D080F931F9341E050E005
:1011100060E070E004C0440F551F661F771F8A957A
:10112000D2F7409550956095709580919C02909172
:101130009D02A0919E02B0919F028A019B0108230B
:1011400019232A233B23C901B8011F910F910C9445
:101150003D080F931F9341E050E060E070E004C051
:10116000440F551F661F771F8A95D2F780919C0206
:1011700090919D02A0919E02B0919F028A019B01D5
:10118000082719272A273B27C901B8011F910F916A
:101190000C943D080F931F9300919C0210919D02A7
:1011A00020919E0230919F02602B712B822B932BFA
:1011B0001F910F910C943D080F931F9300919C0277
:1011C00010919D0220919E0230919F026023712315
:1011D000822393231F910F910C943D080F931F932B
:1011E00000919C0210919D0220919E0230919F02DD
:1011F00060277127822793271F910F910C943D0838
:1012000008952CE0929F800D1124E82FE695E69535
:10121000E695877051E001C0550F8A95EAF785E0A1
:10122000E89FF0011124E258FD4F20E030E070E02B
:101230004081CB01022E02C0969587950A94E2F771
:101240008170819584278523842781932F5F3F4F69
:101250002530310569F708952CE0929F800D112407
:10126000682F669566956695982F977085E0689FBC
:10127000B001112440E050E080E0FB01E40FF51FD5
:10128000E258FD4F208130E0092E02C036952795A7
:101290000A94E2F721703327042E01C0220F0A942A
:1012A000EAF7822B4F5F5F4F4530510531F70895C4
:1012B000BF92CF92DF92EF92FF920F931F93CF9343
:1012C000DF938C01C0909C02D0909D02E0909E0222
:1012D000F0909F028091A0029091A102A091A202A1
:1012E000B091A302C82AD92AEA2AFB2ACFE1D0E08A
:1012F000D701C6010C2E04C0B695A7959795879582
:101300000A94D2F780FD04C0219790F7B12C07C052
:10131000BC2EB8018C2F0E94AE100197A9F38B2D23
:10132000DF91CF911F910F91FF90EF90DF90CF90C1
:10133000BF900895CF93DF93EC010E945809BE013E
:101340000E94AE10DF91CF9108951F93CF93DF934A
:10135000EB0190917D02992321F0CB010E949A0923
:1013600013C0882349F0CB010E945809182F682F19
:10137000CE010E94010904C0CB010E942C09182F44
:10138000BE01812F0E94AE10DF91CF911F91089571
:101390001F93CF93DF93C091A40216E08091A50222
:1013A000C81799F0D0E01C9FF0011D9FF00D11248B
:1013B000EA55FD4F4081518162817381848195811D
:1013C0000E94E1072196C770E9CFDF91CF911F916D
:1013D00008954091D6025091D7026091D802709141
:1013E000D9028091DA029091DB020C94E107EF922E
:1013F000FF920F931F93CF93DF938091DB0282952F
:101400008F7009F065C08091D802882309F460C00C
:101410008091A402F090A5021091D6020091D7020B
:101420006091D9027091DA0291E01F3F09F090E0DB
:10143000C091D301D091D401292F96E0E92E8F15C8
:1014400009F446C06115710521F00F3F21F030E02D
:1014500003C031E001C0322F90E030FD36C0E89E7D
:10146000F001E99EF00D1124DF01AA55BD4F119640
:101470003C911197301329C03C91311326C012962C
:101480003C911297311121C013964D915C911497A4
:10149000461B570B4C175D07C0F48091DB028F7021
:1014A00080618093DB02E555FD4F80818F70806104
:1014B000808386ED92E00E945F07DF91CF911F91BC
:1014C0000F91FF90EF900C94C80901968770B7CFE9
:1014D000DF91CF911F910F91FF90EF9008959F9210
:1014E000AF92BF92CF92DF92EF92FF920F931F9332
:1014F000CF93DF93CDB7DEB761970FB6F894DEBF19
:101500000FBECDBF8C0185E0F801DE011D96019074
:101510000D928A95E1F7D8011296EC909091D6023F
:10152000E091D7022091D9023091DA0221153105DC
:1015300031F0EF3F31F481E09F3F19F403C081E0C7
:1015400001C080E0B82FB1709B2E80FD47C1D8014B
:101550004C9111965C9111971396AD90BC90149795
:1015600086EDC82E82E0D82EF090D802B501621B1D
:10157000730B2091D3013091D401FF2009F4D9C01D
:101580008091DB026217730708F095C0282F207F37
:1015900009F052C05E1313C0491311C0FE2CE110B4
:1015A0000EC08F7080618093DB020E94E909C60142
:1015B0000E945F078091DB02F80185834DC1AB2853
:1015C00031F05F3F31F481E04F3F19F403C081E017
:1015D00001C080E080FD03C081E08E2502C080E074
:1015E00090E0F82FF170FF2E80FF1CC08091A402C4
:1015F0002091A50236E0821709F40BC190E0389FD4
:10160000F001399FF00D1124EA55FD4F6181561309
:1016100006C06081461303C06281E61203C00196D2
:101620008770E9CFFE2CEE2009F416C18091DB0211
:1016300081608093DB0254C05E1306C0491304C06E
:10164000E11002C0F80199C0C8010E94CA078823AE
:1016500061F1EE2051F12091DB02822F82958F7093
:1016600090E0029774F08091D6029091D70298870B
:101670008F831986BB86AA862C87CE0107960E9487
:101680005F0786E0F801A6EDB2E001900D928A9521
:10169000E1F70E94F7090E94E9090AC05E1711F1FB
:1016A000C8010E94CA0781112CC0C8010E945F07AF
:1016B000FF24F394D1C0282F207F81F77A2DB98A97
:1016C000A88A6E2D89890E94D20786ED92E00E9439
:1016D0005F0786E0D6011D928A95E9F70E94E90925
:1016E000F12CBAC04913DCCFE110DACFF8018583C1
:1016F000C8010E945F0786E0D6011D928A95E9F72E
:10170000ABC0EE2091F22091DB02822F82958F7088
:1017100090E002970CF4B5CF8091D6029091D70259
:101720009A8389831B82BD82AC822E83CE0101966F
:10173000A6CF6217730708F044C0FE2CEE2009F410
:10174000B4CF5E1330C049132EC02091DB0220FDC0
:1017500021C0822F82958F70482F50E0411551058E
:10176000C9F0F80125834F30510541F08F5F982F64
:101770009295907F822F8F70892B8583C8010E945C
:101780005F0786E0F801A6EDB2E001900D928A9520
:10179000E1F73CC086E0F801A6EDB2E001900D92C1
:1017A0008A95E1F759C0C8010E94CA07811169CF23
:1017B0008091DB0281608093DB02C8010E945F0799
:1017C0004BC07A2DB98AA88A6E2D89890E94D207CA
:1017D00086E0D6011D928A95E9F718C0EE2009F43B
:1017E00064CFC8010E94CA07F82E882309F45DCF90
:1017F00086E0F801A6EDB2E001900D928A95E1F73E
:1018000086ED92E00E94D0030E94F7090E94E90948
:1018100023C04D875E878D859E850E949A09292F5A
:1018200022952F70223028F49F7039F0811105C065
:101830000BC0243028F49F7049F4805E883020F07B
:10184000C8010E945F079F2CF92C06C0D80115968D
:101850009C91907F91F7F8CF8F2D61960FB6F894F9
:10186000DEBF0FBECDBFDF91CF911F910F91FF90D3
:10187000EF90DF90CF90BF90AF909F9008951F930F
:10188000CF93DF93CDB7DEB72C970FB6F894DEBFBA
:101890000FBECDBF4F83588769877A878B879C8718
:1018A000CE0107960E946F0A8823D1F09F81888518
:1018B0002A853B85232B31F08F3F31F481E09F3F18
:1018C00019F403C081E001C080E080FD47C04F8172
:1018D000588569857A858B859C850E94E1073EC085
:1018E00086E0FE013796DE01119601900D928A95F1
:1018F000E1F7FF81E8856A857B856115710531F027
:10190000EF3F31F481E0FF3F19F403C081E001C0F3
:1019100080E080FD23C02091A50230E0C90101963E
:10192000877099274091A40250E084179507F1F140
:10193000F983EA837D836C8396E0929FD001939F25
:10194000B00D1124AA55BD4FFE01319601900D92A4
:101950009A95E1F78093A5020E94C80916E080914C
:10196000A4029091A502891771F1189FC00111245A
:101970008A559D4F0E946F0A882329F1E091A402A5
:101980001E9FF0011124EA55FD4F40815181628173
:101990007381848195810E94E1078091A40290E087
:1019A0000196877099278093A402D9CF0E94AB0734
:1019B0001092A5021092A402E6EDF2E086E0DF01AB
:1019C0001D928A95E9F72C960FB6F894DEBF0FBEEC
:1019D000CDBFDF91CF911F9108958091E40285954D
:1019E0008595859508958091E4028770089590917A
:1019F000E402977081E009F480E008958091EF029D
:101A000008959091EF02892B8093EF0208958095BD
:101A10009091EF0289238093EF0208951092EF02D4
:101A200008959091EE02892B8093EE02089580959F
:101A30009091EE0289238093EE0208951092EE02B7
:101A400008958091E502089508950C94240D0C9456
:101A5000250D9091350492FD08C09091E5029817EC
:101A600021F08093E5020C94270D08958091E50202
:101A7000882329F01092E50280E00C94270D089548
:101A8000CF93DF93E091D501F091D6018091EF02E1
:101A90008083E091D501F091D60190818091EE0292
:101AA000892B80838091E502882381F0E091D50124
:101AB000F091D6019081892B80838091D5019091FE
:101AC000D6010E94072B81110E94360DC091D501CD
:101AD000D091D60148E050E06CED72E0CE010E945A
:101AE0001034892B69F088E0FE01ACEDB2E0019082
:101AF0000D928A95E1F7CE01DF91CF910C94C22A25
:101B0000DF91CF9108950C94240D9091350492FDAE
:101B100010C098E0899F90011124262B2093E402A5
:101B20000E9463088091E4028595859585950C94C3
:101B3000830D0C9463081092E40280E00C94830DF2
:101B40002091E402809582238093E402982F97707D
:101B500099F430E0482F082E000C550B2417350758
:101B600059F09091350492FD07C08595859585952E
:101B70000E9484080C949B0D08959091350492FB6B
:101B8000222720F9281769F080FB92F990933504F9
:101B900080913404909135040E940B0E82E00C94E5
:101BA000A00D08958091350482FB882780F991E08B
:101BB00089270C94BD0D81E00C94BD0D80E00C9440
:101BC000BD0D6FEF7FEF80E090E00C94723480E009
:101BD00090E00E943E3421E0893E9E4F09F020E0D3
:101BE000822F089582E090E00C94363483E090E0F8
:101BF0000C943634CF9384E090E00E943634C82FA2
:101C000082E290E00E9436342C2F30E0A901582B5C
:101C1000CA01CF910895CF93C92F682F84E090E037
:101C20000E9454346C2F82E290E0CF910C94543493
:101C3000AB01BC018FE090E00C946634AB01BC01B9
:101C400083E190E00C94663460E070E0CB010C948A
:101C50001E0E60E070E0CB010E94180E0C94240E62
:101C600069EE7EEF80E090E00E94723460E082E0F6
:101C700090E00E94543460E083E090E00E9454348D
:101C80001092A0021092A1021092A2021092A3023E
:101C900060E084E090E00E94543460E082E290E0F2
:101CA0000E94543460E085E090E00E94543460E08B
:101CB00086E090E00E9454346FEF87E090E00E944D
:101CC000543440E050E0BA0188E090E00E9466346D
:101CD00060E08DE090E00E94543440E050E0BA01B2
:101CE00088E190E00E94663460E087E190E00E9425
:101CF000543440E050E0BA018CE190E00E94663438
:101D000060E070E080E290E00E94723440E050E0D9
:101D1000BA0188E190E00E9466340C94290E0C947C
:101D2000300E682F8EE090E00C9454340E94F82B13
:101D30006093FC027093FD028093FE029093FF0279
:101D40006093F8027093F9028093FA029093FB0279
:101D5000089585B7806885BF85B7806885BF089579
:101D600081E008950C94B00E08950C94B40E0C9478
:101D7000B40E0C94B70E0C94B40E0C94BB0E0C94D1
:101D8000B40E0E94A90E8AE891E10E94AC2A0E943A
:101D9000BF0E0C94BD0E0E94B50E0C94B40E0E94A2
:101DA000A4110E946A030C9446260E94E32B0E9411
:101DB00089120E94CF0E0C94B90E5F926F927F929F
:101DC0008F929F92AF92BF92CF92DF92EF92FF924B
:101DD0000F931F93CF93DF93CDB7DEB72A970FB63C
:101DE000F894DEBF0FBECDBF0E949E12E82E811177
:101DF0000E94960E30EF832E32E0932E00E010E02A
:101E0000502E802F0E94C8115C01F40161907190E6
:101E10004F016826792661147104B1F40F5F1F4FDA
:101E20000430110569F78FEF89838A831B820E9432
:101E3000EC2B8160782F9D838C8349815A816B8143
:101E40008D810E94860343C08091000381FD0E9422
:101E5000D111F12CCC24C394D12CC3018C219D2110
:101E6000892B71F10E94B20EAC20BD208823A1F015
:101E7000FE825F8281E0A114B10409F480E08887CA
:101E80000E94EC2B8160782F9A8789874E815F8131
:101E900068858A850E948603000F111FF801E051B2
:101EA000FD4F80819181C826D926D182C08241E030
:101EB000AB2809F440E06F2D852D0E94D72007C084
:101EC000F394CC0CDD1CFCE0FF12C7CFA7CF81E060
:101ED000E11001C080E02A960FB6F894DEBF0FBE75
:101EE000CDBFDF91CF911F910F91FF90EF90DF90C9
:101EF000CF90BF90AF909F908F907F906F905F90AA
:101F000008950E94DD0E0E947D250E94A5140C9468
:101F10007B03CF93DF930E94B310EC01811521E581
:101F2000920708F045C0811530E5930708F094C08A
:101F3000883E910528F5803E910508F0F8C0883A62
:101F4000910570F4853A910508F07CC081309105C7
:101F500009F475C008F4E8C0049708F0E8C0E4C0CC
:101F60008F3B910508F0E0C0C85AD0E0CC0FDD1FD0
:101F7000C85DDD4F0990D881C02DCE019464D8C0D2
:101F8000811540E2940758F4811551E0950708F057
:101F9000CEC08D3E910508F4C7C09065C9C0C1157B
:101FA00080E4D80708F4C0C0DF70CE01906AC0C0DA
:101FB000811525E59207A8F4811534E5930708F00B
:101FC00095C0811543E5940708F07BC0811552E563
:101FD000950708F061C0D82FCC27CE01816F906A99
:101FE000A7C0C11589E5D807A0F4C11528E5D20717
:101FF00008F082C0C11536E5D30708F095C08C2FD4
:102000000E9447118F7190E0D82FCC27CE019062AB
:102010008FC0C1154AE5D40708F474C0CE019056AC
:102020008115904208F080C08D2F8F710E9447115A
:10203000DD27D0628F71AE01582BCA0179C081E0D3
:1020400090E076C0C55AD0E0CA5ADD4F8881C82FCB
:10205000D0E0CE0190646CC074E0969587957A9537
:10206000E1F7282F23703C2F337081E090E002C00D
:10207000880F991F3A95E2F79C68AC01522B9A01A0
:102080009C2F9F709695969550E2959FE0011124A4
:10209000C9018C2B9D2B4CC08370992721E030E027
:1020A00002C0220F331F8A95E2F79C2F96959695D2
:1020B00080E2989FE0011124C22BD32BCE019C68B3
:1020C00037C08370992721E030E002C0220F331F10
:1020D0008A95E2F79C2F9695969540E2949FE001B1
:1020E0001124C22BD32BCE019A6822C0D82FCC2723
:1020F000CE01846F906A1CC0DC2FCC27CE01806F8C
:10210000906A16C08C2F8F700E94471194E0D6956C
:10211000C7959A95E1F7CF70D0E0DC2FCC27D06936
:102120009E01282BC90104C080E090E001C0CE01CF
:10213000DF91CF91089520E3829FC0011124FC011B
:102140002CE0729FE00DF11D1124E60FF11DEE0F42
:10215000FF1FE852FF4F8591949108950E949B10B4
:102160000E94890F08958238910569F1B0F4813396
:10217000910509F46DC048F48932910509F463C0F2
:102180008A32910509F469C008958533910509F4EF
:1021900055C089339105B9F00895833E910569F1E1
:1021A00038F4803E9105B1F0823E910509F1089521
:1021B000863E9105A9F1873E9105B9F1843E9105CE
:1021C00009F064C023C02091340420FD4FC021FDDC
:1021D0004DC008958091340480FD44C08091350441
:1021E00080FF44C08091340484FD42C083EE4DC022
:1021F0008091340482FF38C0F5CF8091340482FD91
:1022000033C08091350480FD31C0ECCF809135041E
:1022100081FF32C08091340484FD2AC087EE35C02E
:102220008091340483FF26C0F5CF8091340483FD70
:1022300021C08091350481FD1FC0ECCF8091340412
:1022400085FD1CC01DC08091340485FD19C016C0D9
:102250008091340486FD16C017C08091340486FD39
:1022600013C010C089E311C082EE0FC080EE0DC014
:1022700080E00BC086EE09C084EE07C089E205C08D
:1022800085E303C08AE201C081E390E00895909164
:10229000340492FF0DC0282F2871283019F4877F4D
:1022A000846006C0282F2471243011F48B7F88604D
:1022B00093FF0DC0282F2871283119F4877E84617F
:1022C00006C0282F2471243111F48B7E886120915F
:1022D000350420FF0DC0382F3871383019F4877F4E
:1022E000816006C0382F3171313011F48E7F8860E3
:1022F00021FF0DC0282F2871283119F4877E8161B4
:1023000006C0282F2171213111F48E7E886194FD41
:10231000877E089580E008950C94E10D0E949E123E
:102320008FE39CE90197F1F700C000000E949E1224
:1023300080E00E94C81180FF04C00E948C110C94A0
:10234000552C08950C948E110E94E70D811102C046
:102350000E948F0E0E94F20D809300030E94FA0DDE
:1023600090933504809334040E94A2110E94F60DCC
:10237000682F70E080E090E00E94030860919C026A
:1023800070919D0280919E0290919F020C943B0857
:10239000E82FF0E0EE0FFF1FE25CFB4F80819181A0
:1023A0000895089580EA8A95F1F7089500C0089588
:1023B0000C94D21108950C94DA110C94DB110C9446
:1023C000DA110C94DF11F894E82FE295EF70F0E049
:1023D00031A1282F2F7081E090E001C0880F2A954D
:1023E000EAF7982F9095932391A392A1892B82A32A
:1023F000789408950F931F93CF93DF93C5E6D2E0AF
:1024000089918F3F11F00E94E31182E0C936D8070D
:10241000B9F7C9E5D2E005E612E089918F3F11F0E6
:102420000E94E3110C171D07C1F7DF91CF911F9197
:102430000F910895BF92CF92DF92EF92FF920F9388
:102440001F93CF93DF938C01C62FD0E0CE018B5921
:102450009D4F6C01FC0190819F3F09F450C0B62E46
:10246000F894E92FE295EF70F0E081A19F7021E0F0
:1024700030E001C0220F9A95EAF7822B81A382A156
:102480002095282322A378940E94D611E9E5F2E052
:1024900045E652E021E030E0E12CF12C61916F3F04
:1024A00089F0A62FA295AF70B0E090968C9190E045
:1024B0006F7002C0959587956A95E2F780FD02C01E
:1024C000C90102C080E090E0E82AF92A220F331FF8
:1024D0004E175F0719F7F60180818F3F11F00E94B8
:1024E000E31161E0E114F10409F460E08B2D0E9436
:1024F000D811CC0FDD1FC00FD11FF982E882DF9108
:10250000CF911F910F91FF90EF90DF90CF90BF90F0
:1025100008950E94FA1188E0EEE3F4E0DF01982FBD
:102520001D929A95E9F7E6E3F4E0DF011D928A95A2
:10253000E9F784E00E94E9120C94E602FF920F93FF
:102540001F93CF93DF93CDB7DEB728970FB6F894DC
:10255000DEBF0FBECDBF8E010F5F1F4F88E0F801B9
:1025600011928A95E9F7F12C6F2DC8010E941A1279
:10257000F394F4E0FF12F8CF48E050E0B80186E3AE
:1025800094E00E941034FF24F394009709F4F12C96
:10259000892B41F088E0F801A6E3B4E001900D92A8
:1025A0008A95E1F72F2D44E06EE374E086E394E032
:1025B0000E94EA120E94E8028F2D28960FB6F89426
:1025C000DEBF0FBECDBFDF91CF911F910F91FF9066
:1025D00008950895FF920F931F93CF93DF93F82EE2
:1025E000092F162FD72FC42F222349F081E0809383
:1025F00003030E94EC2B90930203809301038091CC
:1026000003038823D9F080910103909102030E9473
:10261000042C059798F0EF2DF02FA12FBD2F80E00F
:1026200090E04C2F50E08417950734F421913191BC
:102630002D933D930196F7CF10920303DF91CF9135
:102640001F910F91FF9008950E940B2E0E94D50EAE
:102650000C94172E0E941B2E0E94810F0C94352E75
:102660000E948A2B0E94F22D0E94C10E0E94241308
:102670000E942A130E94CB0EFBCF80910A0380FF99
:1026800006C06091DC0170E0660F771F26C081FFF5
:1026900004C06091DC0184E005C082FF07C0609146
:1026A000DC0188E0689FB001112417C090910903F4
:1026B0009923D1F06091DB01961788F72091DC0116
:1026C00088E0289F90011124929FA001939F500DB4
:1026D000112470E0CA010E9459336038710540F43A
:1026E0006115710519F406C068E070E0862F089541
:1026F0008FE7089581E0089580910A0380FF08C064
:102700006091D80170E0759567957595679521C0C2
:1027100081FF06C06091D80170E07595679519C07A
:1027200082FF04C06091D80170E010C0909108034E
:10273000992399F06091D7019617A0F78091D8015D
:10274000899FC001112470E00E94593360387105DF
:1027500040F46115710519F406C061E070E0862F40
:1027600008958FE7089581E008958D3E21F40E9439
:102770003D13819504C08E3E29F40E943D13809341
:102780000E0308958F3E21F40E943D13819504C0ED
:10279000803F29F40E943D1380930D030895893FE3
:1027A00019F40E947C1305C08A3F31F40E947C1307
:1027B000819580930F0308958B3F21F40E947C1331
:1027C000819504C08C3F29F40E947C1380931003F0
:1027D00008959FE0980F983078F421E030E0A90147
:1027E00002C0440F551F9A95E2F7CA0190910C035D
:1027F000892B80930C0308958D3F21F480910A0367
:1028000081600BC08E3F21F480910A03826005C075
:102810008F3F29F480910A03846080930A0308950E
:102820008D3E39F490910E0397FF35C010920E0340
:1028300059C08E3E29F490910E031916BCF32BC09B
:1028400090910D038F3E29F497FF25C010920D0340
:1028500049C0803F19F41916CCF31DC090910F03A5
:10286000893F29F41916BCF410920F033BC08A3F2C
:1028700019F497FF10C0F8CF8B3F39F490911003F3
:1028800097FF09C0109210032DC08C3F21F4909146
:1028900010031916BCF39FE0980F983080F421E0E4
:1028A00030E0A90102C0440F551F9A95E2F7CA0112
:1028B000809590910C03892380930C0313C08D3F66
:1028C00021F480910A038E7F0BC08E3F21F480910A
:1028D0000A038D7F05C08F3F29F480910A038B7F07
:1028E00080930A0380910D03811106C080910E032D
:1028F000811102C01092090380910F03811106C05B
:1029000080911003811102C01092080308950E9463
:10291000EC2B20910D03211104C020910E032223E2
:1029200021F0909307038093060320910F03211158
:1029300004C020911003222321F09093050380937B
:1029400004038BE093E00C94CD2AEF92FF920F9357
:102950001F93CF93DF9300D000D000D0CDB7DEB768
:1029600086E0EBE0F3E0DE01119601900D928A958E
:10297000E1F7E0900D03F0900E0300910F0310912A
:10298000100310920D0310920E0310920F03109279
:102990001003E11003C0FF2009F45DC0809106031D
:1029A000909107030E94042CAC0190910903992394
:1029B00039F02091DD0130E02417350758F04BC085
:1029C0002091DE018AE0289F900111242417350709
:1029D00018F041C09F3F19F09F5F90930903EE20CC
:1029E00061F00E943D131E1414F09FEF01C091E0AE
:1029F000989F902D112490930D03FF2061F00E9469
:102A00003D131F1414F09FEF01C091E0989F902D8B
:102A1000112490930E0330910D033323E1F02091A4
:102A20000E032223C1F045EB3403C0011124992386
:102A300019F090930D0303C081E080930D0335EBF3
:102A40002303C0011124992319F090930E0303C0AE
:102A500081E080930E03011103C0112309F45DC0CE
:102A600080910403909105030E94042CAC01909185
:102A70000803992339F02091D90130E02417350754
:102A800058F04BC02091DA018AE0289F9001112470
:102A90002417350718F041C09F3F19F09F5F9093AE
:102AA0000803002361F00E947C13101614F09FEFBE
:102AB00001C091E0989F902D112490930F03112352
:102AC00061F00E947C13111614F09FEF01C091E099
:102AD000989F902D11249093100330910F0333236E
:102AE000E1F0209110032223C1F045EB3403C00133
:102AF0001124992319F090930F0303C081E0809370
:102B00000F0335EB2303C0011124992319F090938F
:102B1000100303C081E08093100380910D038111A5
:102B20000BC080910E03811107C080910F038111AA
:102B300003C08091100381110E948714EB82FC82F4
:102B40000D831E8386E0FE013196ABE0B3E0019079
:102B50000D928A95E1F726960FB6F894DEBF0FBE68
:102B6000CDBFDF91CF911F910F91FF90EF9008950E
:102B7000EBE0F3E086E0DF011D928A95E9F7109221
:102B800009031092080310920A030895EF92FF922E
:102B90000F931F93CF93DF938B01682F11110AC0FE
:102BA000442329F0E82FF0E0E85AFD4F6491762F96
:102BB000862F75C0212F30E0E82FF0E0442321F06C
:102BC000E85AFD4FE491F0E046E0049FC001112473
:102BD000CFEFD0E0BE010E9445334BEA4603C0016F
:102BE000479F900D1124800F911D800F911D982FEC
:102BF000990F890FAE01421B530B4E9FD0014F9F7F
:102C0000B00D5E9FB00D11249B2F189FA0011124C1
:102C1000452F55278E01041B150B0E9FA0010F9FFA
:102C2000500D1E9F500D11247E01E81AF108E29EFE
:102C30008001E39E100DF29E100D1124212F3327E9
:102C4000C21BD30BCE9F9001CF9F300DDE9F300D66
:102C5000112462307105A9F048F46115710569F01D
:102C600061307105C9F48B2F752F0DC0643071056B
:102C700081F058F06630710579F47E2F8B2F932FF9
:102C80000DC0832F7B2F9E2F09C08E2F7B2F952F5A
:102C900005C08E2F732F02C07E2F852F692FDF91E5
:102CA000CF911F910F91FF90EF90089541E00E9406
:102CB000C615089520E030E0869F212D969F200DB7
:102CC000311D1124C9010895BC018230910508F419
:102CD0000895613E8EE1780748F49B0195E03695B2
:102CE00027959A95E1F748E0420F01C04FEF91E038
:102CF000242F30E0290F311D35952795229FF001B3
:102D0000239FF00DF00D11246E177F0718F44FEF7D
:102D1000420F04C02F3F39F091E0920F491740F75E
:102D20008FEF890F08958FEF08954091E50150913D
:102D3000E60125E038E0429FC001439F900D529F7D
:102D4000900D1124875E994C9093E6018093E501E4
:102D5000890F0895482F982F46FD9095E92FEF731E
:102D60009F7046FD9F5FE295EF70EE0FF0E0E75930
:102D7000FD4F2181299F802D212D112482958F7057
:102D80002295207F822B3081982F930F892F47FD2A
:102D9000819580580895E42FF0E0EE0FFF1FEC5C62
:102DA000FE4F408134EE439F412D1124E72FF0E088
:102DB00050E0445E5F4FDA01A21BB1099D01B7FFED
:102DC00003C031952195310993E0220F331F9A9565
:102DD000E1F7AF01421B530B9A0157FF02C020E0FD
:102DE00030E0279F212D1124722F0895E42FF0E069
:102DF000EE0FFF1FEC5CFE4F408134EE439F412DF0
:102E00001124E82FF0E050E0445E5F4FDA01A21B8E
:102E1000B1099D01B7FF03C031952195310993E0B8
:102E2000220F331F9A95E1F7AF01421B530B9A0112
:102E300057FF02C020E030E0582F259F212D11249C
:102E4000822F0895622F0895E42FF0E0EE0FFF1F08
:102E5000EC5CFE4F6081621B0895E42FF0E0EE0F02
:102E6000FF1FEC5FFE4F61A9621B0895A22F50E087
:102E7000FA01EE0FFF1FEC5FFE4F91A9905297FDF4
:102E80009195440F551FFA01EC5CFE4F3081232FC2
:102E900030E02A1B3109290F311D97FD3A95620F49
:102EA0000895EF920F931F9393E0099F80011124DF
:102EB000159507956E2D600F1F910F91EF90089556
:102EC0000F93CF93DF93D72FC82F47FD4195E8E3AA
:102ED000F0E0CF01841B910947FD9395889FB001D5
:102EE000899F700D700D1124229FC001239F900DAA
:102EF000900D1124860F971F0E946416682F660F8D
:102F0000860F682F600F7D2F8C2FDF91CF910F914F
:102F100008950F931F93522F10E0F801EE0FFF1F3B
:102F2000EC5FFE4FE1A9F0E0B0979F015203D001A2
:102F3000539FB00D1124000F111FF801EC5CFE4FE0
:102F4000008110E00057110940039001419F300DAE
:102F500011242A0F3B1F37FF02C021583F4F220F79
:102F6000232F221F330B620F1F910F9108950F9390
:102F70001F93522F10E0F801EE0FFF1FEC5FFE4F82
:102F8000E1A9F0E0B097EE0FFF1F9F015203D001BF
:102F9000539FB00D1124000F111FF801EC5CFE4F80
:102FA000008110E000571109000F111F400390012C
:102FB000419F300D11242A0F3B1F37FF02C02158BB
:102FC0003F4F220F232F221F330B620F1F910F91B0
:102FD00008950F931F9310E0F801EE0FFF1FEC5CB4
:102FE000FE4F9081905797FD9195000F111FF801AA
:102FF000EC5FFE4FE1A9F0E0B097DF01AA0FBB1F25
:103000008D010E0F1F1F2003D001219FB00D112431
:10301000E8E3F0E0E91BF10997FDF3959F01220F2A
:10302000331F89010E0F1F1F40039001419F300D78
:1030300011242A0F3B1F37FF02C021583F4F220F98
:10304000232F221F330B620F1F910F9108950F93AF
:103050001F93CF93DF93D62F072F182FC42F822FC4
:103060000E94AA16EC2FF0E0EE0FFF1FEC5CFE4F63
:1030700090819058890F87FD8195880F682F2CE0EB
:10308000629F612D11246D0F702F812FDF91CF91E1
:103090001F910F910895E42FF0E0EE0FFF1FEC5CFD
:1030A000FE4F9081921B97FD9195292F38E1239F28
:1030B000212D1124620F089520914A0430E1230F3D
:1030C00008F42FEF60E1822F90E00E945A16BC01B5
:1030D00088EB9BE00E94453380E090E008954095A6
:1030E000282F429F412D1124842F089522E8241B6C
:1030F00008F420E0620F0895EF92FF920F9397017A
:1031000095E0099F200D311D11242F3F310519F045
:1031100010F02FEF30E02095382F320F08F43FEFFA
:10312000832F0F91FF90EF900895EF92FF920F93EE
:10313000E00EF11CF90137FF03C0F195E195F109AB
:1031400024E0EE0FFF1F2A95E1F7EF3FF10519F09C
:1031500014F0EFEFF0E09A0157FF03C0319521958D
:10316000310994E0220F331F9A95E1F72E173F079C
:103170000CF4F901EE0DFF1DEF3FF10519F010F011
:10318000EFEFF0E02E2F2095382F320F08F43FEFAD
:10319000832F0F91FF90EF900895EF92FF920F937E
:1031A000972F093438F4B701601B71096F3F71051F
:1031B00019F010F06FEF70E0485F5F4F413151053B
:1031C00040F0A901485F5F4F4131510510F06FEFAA
:1031D00070E06095482F460F08F44FEF842F37FFBB
:1031E00002C02D5F3F4F3595279535952795609106
:1031F0004704620F792F0F91FF90EF900895EF929F
:10320000FF920F939701201B31092F3F310519F0D1
:1032100010F02FEF30E0322F3095482F430F08F495
:103220004FEF842F620F0F91FF90EF900895EF9270
:10323000FF920F939701201B31092F3F310519F0A1
:1032400010F02FEF30E02095382F320F08F43FEFC9
:10325000832F0F91FF90EF900895FC019B01009741
:1032600021F477FF2BC080E80895AC0197FF04C0DC
:1032700044275527481B590BB901640F751F37FDAB
:103280000CC0241B350BC901A5E0880F991FAA9516
:10329000E1F70E94593380E20CC0CB0165E0880F52
:1032A000991F6A95E1F7BA01621B730B0E945933AB
:1032B00080E6861BF7FF03C08195089580E008959E
:1032C000FF920F931F93CF93DF93F62E172FD82FD4
:1032D000C901C72FC01BBA010E942D19982F990F41
:1032E000890F7C2F781B719F712D11246F2D8D2FCD
:1032F000DF91CF911F910F91FF900895FF920F934F
:103300001F93CF93DF93F62ED72F182FC901C12F0C
:10331000C01BBA010E942D19982F990F890FC81B45
:103320002C2F219F212D1124822F6F2D7D2FDF9196
:10333000CF911F910F91FF900895EF920F931F93DC
:10334000CF93DF93D62F172FC82FC9010E19070F60
:10335000BA010E942D19702F781B719F712D1124B5
:103360006D2F8C2FDF91CF911F910F91EF900895CA
:10337000EF920F931F93CF93DF93D62FC72F182F62
:10338000C9010E19010FBA010E942D19081B202F27
:10339000219F212D1124822F6D2F7C2FDF91CF9122
:1033A0001F910F91EF9008950F93CF93DF93D72F35
:1033B000C82FC901BA010E942D19682F600F7D2FF7
:1033C0008C2FDF91CF910F910895EF920F93CF93B0
:1033D000DF93D72FC82FC9010E19BA010E942D19EA
:1033E000602F681B7D2F8C2FDF91CF910F91EF9075
:1033F00008950E9456160895E6E4F4E085E380837C
:103400008091F4019091F501A091F601818392835E
:10341000A3838FE784838FEF858346E050E06CE1E0
:1034200070E0CF010E9444341092EC03089580E0D4
:1034300008950F931F93CF93DF93C82FD62F8A0140
:103440000E94171A9CE0C99FF0011124EC5FFE4F07
:10345000ED0FF11D90819F3F29F0F801E80FF11D5C
:1034600090838F5FDF91CF911F910F910895E0912D
:103470007702F09178020994E0917302F09174025E
:1034800009944F925F926F927F928F929F92AF9228
:10349000BF92CF92DF92EF920F931F93CF93DF9360
:1034A0002C013B01FC01C0818BE0C89FC02D112481
:1034B000DBE0DC0FD63308F0D5E360914A04669573
:1034C00080914C0490914D040E945A16182FCD17EC
:1034D00008F044C08C2E912CF401E256FE4F9081EE
:1034E000F20181818923C1F1F401EE0FFF1FEC5C31
:1034F000FE4FC080D12CF0E7CF1AD108F401EE0FB7
:10350000FF1FEC5FFE4FA1A8B12C80E2A81AB10802
:10351000CC9C9001CD9C300D300D1124AA9CC00193
:10352000AB9C900D900D1124820F931F0E94641686
:10353000082F609147047091480480914904E12E5E
:103540009501A601F30109950E94F919462F282F2C
:10355000672FC4010E943C1ACF5FB9CF81E0D533F9
:1035600008F080E0DF91CF911F910F91EF90DF90F5
:10357000CF90BF90AF909F908F907F906F905F9013
:103580004F9008956DE979E10C94411A68EB79E167
:103590000C94411A61E577E10C94411A65EE79E1EA
:1035A0000C94411AAF92BF92CF92DF92EF92FF92AA
:1035B0000F931F93CF93DF936C015B01FC01C081DC
:1035C0008BE0C89FC02D1124DBE0DC0FD63308F060
:1035D000D5E360914A04669580914C0490914D0426
:1035E0000E945A16182FCD1778F5EC2EF12CF70102
:1035F000E256FE4F9081F6018181892319F1F7018E
:10360000EE0FFF1FEC5FFE4F21A930E02052310981
:10361000F701EE0FFF1FEC5CFE4F408150E040577A
:103620005109609147047091480480914904012F29
:10363000F50109950E94F919462F282F672FC70118
:103640000E943C1ACF5FCFCF81E0D53308F080E0F5
:10365000DF91CF911F910F91FF90EF90DF90CF906E
:10366000BF90AF90089560E679E10C94D21A6EE7AE
:1036700079E10C94D21A60E677E10C94D21A64EDE9
:1036800079E10C94D21ABF92CF92DF92EF92FF921F
:103690000F931F93CF93DF938C017B01FC01C081BB
:1036A0008BE0C89FC02D1124DBE0DC0FD63308F07F
:1036B000D5E360914A046695669521E0620F08F4AF
:1036C0006FEF80914C0490914D040E945A16B82ED1
:1036D000CD17F0F4CC2ED12CF601E256FE4F90819E
:1036E000F8018181892391F0609147047091480429
:1036F000809149042B2D4C2FF70109950E94F9194F
:10370000462F282F672FC6010E943C1ACF5FE0CFBB
:1037100081E0D53308F080E0DF91CF911F910F91C8
:10372000FF90EF90DF90CF90BF9008956BEC76E123
:103730000C94431B66EF76E10C94431B62E277E145
:103740000C94431B64E277E10C94431B6DE277E138
:103750000C94431B66E377E10C94431B67E278E12A
:103760000C94431B6BE478E10C94431B7F928F9283
:103770009F92AF92BF92CF92DF92EF92FF920F9300
:103780001F93CF93DF936C015B01FC01C0818BE041
:10379000C89FC02D1124DBE0DC0FD63308F0D5E341
:1037A00060914A046695669580914C0490914D0411
:1037B0000E945A16182F80E4810F0E94AA1690E8E2
:1037C000F92EF80E812F0E94AA1620E8722E780E8C
:1037D000CD1700F58C2E912CF401E256FE4F90810E
:1037E000F60181818923A1F060914704709148041A
:1037F00080914904E12E0C2F272D4F2DF5010995BD
:103800000E94F919462F282F672FC4010E943C1AE5
:10381000CF5FDECF81E0D53308F080E0DF91CF913C
:103820001F910F91FF90EF90DF90CF90BF90AF90DE
:103830009F908F907F90089569E877E10C94B61B74
:1038400067EB77E10C94B61B69EE77E10C94B61B3D
:10385000AF92BF92CF92DF92EF92FF920F931F939E
:10386000CF93DF938C017B01FC01C0818BE0C89F6B
:10387000C02D1124DBE0DC0FD63308F0D5E3209116
:103880004A0431E0230F08F42FEF30E040E050E02D
:103890006FEF7FEF80E090E00E948F336901CD17DA
:1038A00008F041C0AC2EB12CF501E256FE4F9081DC
:1038B000F80181818923A9F190915004915097FDDD
:1038C00015C0292F092E000C330BF901E05BFB4FCB
:1038D0008189C813F3CF220F331FF901E05BFB4F3F
:1038E000218D328D2C153D0548F701C09601609160
:1038F0004A0441E0640F08F46FEFC9010E945A16B0
:10390000AC01609147047091480480914904F7012B
:1039100009950E94F919462F282F672FC5010E948B
:103920003C1ACF5FBCCF81E0D53308F080E0DF9157
:10393000CF911F910F91FF90EF90DF90CF90BF90AC
:10394000AF9008956FE678E10C94281C66E778E163
:103950000C94281C2F923F924F925F926F927F920D
:103960008F929F92AF92BF92CF92DF92EF92FF928F
:103970000F931F93CF93DF93CDB7DEB729970FB681
:10398000F894DEBF0FBECDBF8B834B013A01DB0144
:103990001C918BE0189F102D1124BBE0B10FB9834F
:1039A000B63310F0E5E3E983F0915004FA8389819E
:1039B000181708F07FC0A12EB12CF501E256FE4F7A
:1039C0009081D40111968C91892309F471C02090C3
:1039D0004704309048044B80512CC501880F991F33
:1039E000FC01EC5CFE4FFD83EC83C501880F991F41
:1039F0009C012B5C3E4F3F832E83FA814F1608F0CB
:103A000047C0E42CF12CAC81BD81BC91EB2FF0E0E0
:103A1000F987E887F701E05BFB4F818128853985CD
:103A2000281B310939872887AE81BF81CC90D12CE2
:103A30008185C81AD108F901EE9F9001EF9F300DE2
:103A4000300D1124CC9CC001CD9C900D900D112403
:103A5000820F931F0E946416082F60914A0421E090
:103A6000620F08F46FEFF701EE0FFF1FE05BFB4FF3
:103A7000818D928D0E945A167C0196014885598548
:103A8000B101852DF30109951B014394582EB5CF43
:103A900020914904352D329F312D1124832FB101FE
:103AA0000E94F919462F282F672FC5010E943C1A42
:103AB0001F5F7DCF81E09981953308F080E02996E2
:103AC0000FB6F894DEBF0FBECDBFDF91CF911F912F
:103AD0000F91FF90EF90DF90CF90BF90AF909F90AD
:103AE0008F907F906F905F904F903F902F900895B0
:103AF0002091500431E0231B08F420E04CE758E10A
:103B0000BC01822F0C94AA1C4CE758E1BC0180E058
:103B10000C94AA1C2091500431E0231B08F420E0EF
:103B200045E958E1BC01822F0C94AA1C45E958E1F3
:103B3000BC0180E00C94AA1C2091500431E0231BAE
:103B400008F420E04DEC58E1BC01822F0C94AA1C33
:103B50004DEC58E1BC0180E00C94AA1C209150046B
:103B600031E0231B08F420E04FEF58E1BC01822F25
:103B70000C94AA1C4FEF58E1BC0180E00C94AA1CE5
:103B80002091500431E0231B08F420E047E159E183
:103B9000BC01822F0C94AA1C47E159E1BC0180E0D2
:103BA0000C94AA1CDF92EF92FF920F931F93CF9376
:103BB000DF938C01DC018C91CBE08C9FC02D112414
:103BC000DBE0DC0FD63308F0D5E360914704709159
:103BD0004804809149040E94F919F62EE72ED82E48
:103BE000CD1798F4EC2FF0E0DF01A256BE4F8C9178
:103BF000D80111969C91982331F02D2D4F2D6E2DCB
:103C0000CF010E943C1ACF5FEBCF81E0D53308F0A3
:103C100080E0DF91CF911F910F91FF90EF90DF90A7
:103C20000895AF92BF92CF92DF92EF92FF920F93DF
:103C30001F93CF93DF938C01FC01C0818BE0C89F61
:103C4000C02D1124DBE0DC0FD63308F0D5E3E09083
:103C50004804F0904904D09047046D2D7E2D8F2D9F
:103C60000E94F919C62EB72EA82E60914A046D0D38
:103C70007E2D8F2D0E94F919F62EE72ED82ECD1706
:103C8000B8F48C2F90E0FC01E256FE4F3081F80131
:103C90002181232359F030FF04C02D2D4F2D6E2D8F
:103CA00003C02A2D4C2D6B2D0E943C1ACF5FE7CF0D
:103CB00081E0D53308F080E0DF91CF911F910F9123
:103CC000FF90EF90DF90CF90BF90AF900895BF929C
:103CD000CF92DF92EF92FF920F931F93CF93DF93D8
:103CE0006C01FC01C0818BE0C89FC02D1124DBE07A
:103CF000DC0FD63308F0D5E300914804B0904904B6
:103D000020914A0410E4129F112D1124CD1718F5AB
:103D1000EC2EF12CF701E256FE4F9081F6018181E5
:103D20008923B9F0F701EE0FFF1FEC5FFE4F81A969
:103D300082958F7060914704819F600D1124702FD0
:103D40008B2D0E94F919462F282F672FC7010E943B
:103D50003C1ACF5FDBCF81E0D53308F080E0DF9104
:103D6000CF911F910F91FF90EF90DF90CF90BF9078
:103D70000895BF92CF92DF92EF92FF920F931F931D
:103D8000CF93DF937C01FC01C0818BE0C89FC02DE5
:103D90001124DBE0DC0FD63308F0D5E3C0904804F3
:103DA000B090490420914A0430E4D32E3D2D329F37
:103DB000312D1124D32ECD1738F50C2F10E0F8013A
:103DC000E256FE4F9081F70181818923D9F0F801F5
:103DD000EE0FFF1FEC5CFE4F6081D69EB0011124F8
:103DE00095E0759567959A95E1F780914704680F7E
:103DF0007C2D8B2D0E94F919462F282F672FC80183
:103E00000E943C1ACF5FD7CF81E0D53308F080E025
:103E1000DF91CF911F910F91FF90EF90DF90CF90A6
:103E2000BF900895DF92EF92FF920F931F93CF936D
:103E3000DF938C01DC01CC918BE0C89FC02D112455
:103E4000DBE0DC0FD63308F0D5E3E0904704F090D8
:103E50004804D090490460914A0466956695669539
:103E600080914C0490914D040E945A160E94AA160B
:103E7000805887FD8195880F282F3D2D239F212D68
:103E80001124822FB7010E94F919F62EE72ED82EA1
:103E9000CD1798F4EC2FF0E0DF01A256BE4F8C91C5
:103EA000D80111969C91982331F02D2D4F2D6E2D18
:103EB000CF010E943C1ACF5FEBCF81E0D53308F0F1
:103EC00080E0DF91CF911F910F91FF90EF90DF90F5
:103ED0000895DF92EF92FF920F931F93CF93DF939A
:103EE000EC01FC01E256FE4F9081692381F1D090F4
:103EF00048040091490410914704E12EF12C0E94DE
:103F00000034282FC7018C549F4F68E671E00E944F
:103F100059338E199F0997FD039695958795959529
:103F200087952370612F289F600D11247D2D802F90
:103F30000E94F919462F282F672FCE01DF91CF91CC
:103F40001F910F91FF90EF90DF900C943C1ADF913E
:103F5000CF911F910F91FF90EF90DF900895CF9236
:103F6000DF92FF920F931F93CF93DF938C01FC019D
:103F7000C281C1111DC060914A0420E1620F08F4A2
:103F80006FEF80914C0490914D040E945A166AE0A4
:103F900070E00E944533892B59F50E94003465E397
:103FA00070E00E945933F80161810E94691F20C0AE
:103FB000FC018081CBE08C9FC02D11249BE0F92E69
:103FC000FC0EF5E3FF1510F485E3F82ED0E0CF2CBE
:103FD000D12CCC15DD053CF4F8016181CE010E94A5
:103FE000691F2196F6CFC1E0F4E3FF1508F4C0E0A5
:103FF0008C2FDF91CF911F910F91FF90DF90CF9089
:1040000008951F93CF93DF93FC01E256FE4F20816A
:104010006223D1F0EC010E940034182F0E9400347A
:104020008F77782F20E8720F08F47FEF612F80914F
:1040300049040E94F919462F282F672FCE01DF91DE
:10404000CF911F910C943C1ADF91CF911F9108954D
:10405000CF92DF92FF920F931F93CF93DF938C0148
:10406000FC01C281C1111DC060914A0420E1620FB0
:1040700008F46FEF80914C0490914D040E945A1601
:1040800065E070E00E944533892B59F50E940034A9
:1040900065E370E00E945933F80161810E940120BC
:1040A00020C0FC018081CBE08C9FC02D11249BE0BF
:1040B000F92EFC0EF5E3FF1510F485E3F82ED0E0A1
:1040C000CF2CD12CCC15DD053CF4F8016181CE015B
:1040D0000E9401202196F6CFC1E0F4E3FF1508F419
:1040E000C0E08C2FDF91CF911F910F91FF90DF9057
:1040F000CF900895DF92EF92FF920F931F93CF938B
:10410000DF938C01DC01CC918BE0C89FC02D112482
:10411000DBE0DC0FD63308F0D5E3E0904804F09004
:104120004904D090470460914A0466956695669567
:1041300080914C0490914D040E945A160E94AA1638
:10414000805887FD8195880F682F2CE0629F612D34
:1041500011246D0D7E2D8F2D0E945616F62EE72E02
:10416000D82ECD1798F4EC2FF0E0DF01A256BE4F09
:104170008C91D80111969C91982331F02D2D4F2DC3
:104180006E2DCF010E943C1ACF5FEBCF81E0D5337B
:1041900008F080E0DF91CF911F910F91FF90EF9099
:1041A000DF900895E0917502F09176020994CF9224
:1041B000DF92FF920F931F93CF93DF93CDB7DEB7BC
:1041C00028970FB6F894DEBF0FBECDBF182F062F6D
:1041D000F42E0E94B00E882309F46FC0FF2049F02E
:1041E000AE014F5F5F4F602F812F0E94191AF82E8A
:1041F00001C0F12C0F2D10E08091ED039801280FE4
:10420000311D293031056CF188E090E06C01C01A55
:10421000D10AB80162517C4FA6018EEE93E00E9454
:104220001D34B8016A507C4FA60186EF93E00E94CE
:104230001D34A601440F551FB801660F771F6A5F32
:104240007B4F86E094E00E941D34B80162507C4FA1
:10425000A6018EEF93E00E941D3488E08F198093B1
:10426000ED031091ED03DE01119640E0842F810FE4
:10427000F41609F190E05D91252F30E0BC01635107
:104280007C4FF901EE0FFF1FEC5CFE4F0081FB013C
:104290000183220F331FF901EC5FFE4F21A9FB01BF
:1042A0002187518B880F991FFC01E351FC4F128E1F
:1042B000118E4F5FDBCF8093ED0328960FB6F894F5
:1042C000DEBF0FBECDBFDF91CF911F910F91FF9049
:1042D000DF90CF90089580914C0490914D04A0916F
:1042E0004E04B0914F0488279C70AA27BB272AE070
:1042F000B695A795979587952A95D1F78230910520
:10430000A105B10571F083309105A105B10569F0F2
:1043100040E00197A105B10511F060E008C064E13B
:1043200002C044E160E080E003C044E164E184E174
:104330000C94D2207F928F929F92AF92BF92CF9295
:10434000DF92EF92FF920F931F93CF93DF93C82FCB
:104350008091E3018C130DC020914604237030E05E
:104360004091E40150E081E02417350719F480E022
:1043700001C081E081708093E20180914B049091B3
:10438000E101981739F08093E10140E060E080E0BE
:104390000E94D220C53109F04CC080EE91E00E940D
:1043A000201C0AC0C53008F093C0C13009F056C0C7
:1043B00080EE91E00E94D21DD82F27C00E94951652
:1043C0007801EE0CFF1C81FFCDC10E0D1F1DF80101
:1043D000EB5BFC4F1082118212820E945C180091EC
:1043E0004C0410914D0420914E0430914F04DC0197
:1043F000CB01800F911FA21FB31F8093E403909302
:10440000E503A093E603B093E7038091E0018F5F9B
:104410008093E001D11141C382E08093DF0180915C
:10442000E20181113AC3C11138C383E08093DF01F7
:1044300034C3C63108F0BEC0CA3029F480EE91E022
:104440000E94C21AB9CFCB3008F067C0C43009F05F
:10445000A9CF80EE91E00E94B91EAECFC13020F509
:104460008091E2018823F1F040E060E080E00E946A
:10447000D22018C0CC3131F54091E8035091E903C6
:104480006091EA037091EB0380914C0490914D048C
:10449000A0914E04B0914F0484179507A607B70763
:1044A00008F084C1D0E0B1CFC23029F480EE91E0B1
:1044B0000E94111E81CFC33029F480EE91E00E944A
:1044C000671E7ACF8091E0018F5F8093E001A4CFD7
:1044D000C73029F480EE91E00E949A1B6DCFC8305E
:1044E00070F4C53029F480EE91E00E94121F64CF71
:1044F000C63041F780EE91E00E94961B5DCFC83038
:1045000029F480EE91E00E94331B56CFC930D1F6DA
:1045100080EE91E00E94371B4FCFCF3029F480EE20
:1045200091E00E94AA1B48CFC031E8F4CC3029F4B6
:1045300080EE91E00E949E1B3FCFCC3028F480EEAD
:1045400091E00E94C61A38CFCD3029F480EE91E078
:104550000E94A21B31CFCE3009F0B4CF80EE91E0A3
:104560000E94A61B29CFC23129F480EE91E00E945F
:104570003F1B22CFC33178F4C03129F480EE91E0A3
:104580000E94CA1A19CFC13109F09CCF80EE91E088
:104590000E943B1B11CFC33129F480EE91E00E94B1
:1045A000CE1A0ACFC43109F08DCF80EE91E00E947F
:1045B0001C1C02CFC03229F480EE91E00E94A61CA0
:1045C000FBCEC13208F013C2CA3129F480EE91E06B
:1045D0000E94AE1BF1CECB31E8F4C73129F480EE56
:1045E00091E00E94AF1FE8CEC73128F480EE91E041
:1045F0000E94241CE1CEC83129F480EE91E00E9493
:104600002820DACEC93109F05DCF80EE91E00E941A
:104610007A20D2CECD3109F0BEC04091E403509152
:10462000E5036091E6037091E70380914C0490915B
:104630004D04A0914E04B0914F0484179507A6072E
:10464000B70708F42FCF8091E20181110DC080914E
:10465000E001DBE08D9FD02D11240BE00D0F063320
:1046600008F454C005E352C040E060E080E00E94DE
:10467000D220D5E4ED2ED3E0FD2E00E010E0DFE700
:104680000E94951681FF05C0F701108211821282E7
:104690001DC00E949516B82E0E9495168695782FFB
:1046A0002D2F720F08F47FEFC801880F991F800F1C
:1046B000911FFC01EB5BFC4F6F016B2D8091490456
:1046C0000E945616F6016083718382830F5F1F4F2D
:1046D000F3E0EF0EF11C0533110591F6B8CF8D2FE5
:1046E00090E0FC01E256FE4F30812091E10123234E
:1046F00061F0FC01EE0FFF1FE80FF91FEB5BFC4FB1
:104700002281408161810E943C1ADF5FD01738F31B
:10471000D1E0053308F0D0E0053308F476CE20E090
:1047200010E001501109822F90E0801791070CF0E2
:1047300045CEAC01440F551F480F591F4B5B5C4FD2
:104740000196FC01EE0FFF1F8E0F9F1FFC01EB5B1C
:10475000FC4F80819181A281FA0180839183A283A1
:104760002F5FE1CF0E949516D82E0E949516869550
:10477000782F2FE7720F08F47FEF0E0D1F1D0B5BD4
:104780001C4F6D2D809149040E945616F8016083DC
:104790007183828322CECE3108F05FC0CB3109F025
:1047A00069CE80EE91E00E94B21B06CE0E94951663
:1047B000D82F0E94951695E3891BF0F7890F082FD3
:1047C00010E0F801E256FE4F9091E10180818923CB
:1047D00009F441C0D1FF04C020E040E060E013C014
:1047E0000E949516D82F0E9495168695782F2FE750
:1047F000720F08F47FEF6D2F809149040E94F91920
:10480000462F282F672FC8010E943C1A20914A0486
:1048100030E1230F08F42FEF60E1822F90E00E9437
:104820005A16BC0184EF91E00E94453380914C04FC
:1048300090914D04A0914E04B0914F04860F971FA4
:10484000A11DB11D8093E8039093E903A093EA03AF
:10485000B093EB0327CED1E0D8CDCE3109F0BFC065
:10486000409141035091420360914303709144038E
:1048700080914C0490914D04A0914E04B0914F044E
:1048800084179507A607B70708F40CCE8091E201BC
:10489000882329F040E060E080E00E94D22060910F
:1048A000470470914804809149040E94F919D62F59
:1048B000972E882E01E113E024E0E22E21E0F22E73
:1048C0005701680185E0782EF6018081F501882383
:1048D00029F08081282D4D2F692D04C0808120E092
:1048E00040E060E090E00E943C1AF60181818193F3
:1048F0006F017A94FFEFAF1ABF0A7110E5CF57012D
:1049000068019BE0792EF6018385F501882329F063
:104910008385282D4D2F692D04C0838520E040E03C
:1049200060E090E00E943C1AF601828583877A94C9
:10493000F1E0CF1AD10821E0A21AB10836E07312D3
:10494000E2CFF8018681F701882329F08681282D9E
:104950004D2F692D04C0868120E040E060E090E0AA
:104960000E943C1AF8018581F701882329F085818E
:10497000282D4D2F692D04C0858120E040E060E0A6
:1049800090E00E943C1A0E949516837091E009F015
:1049900090E0F80195839683045F1F4FFCE0EF0ED3
:1049A000F11C23E00134120709F08ACF0E945C1841
:1049B00000914C0410914D0420914E0430914F040D
:1049C000DC01CB01800F911FA21FB31F8093410315
:1049D00090934203A0934303B093440363CDCF313C
:1049E00009F070CD80EE91E00E94A21CE5CCC632A9
:1049F00029F480EE91E00E94A81DDECCC73238F584
:104A0000C33229F480EE91E00E948A1DD5CCC432D5
:104A100078F4C13229F480EE91E00E94781DCCCC6C
:104A2000C23209F04FCD80EE91E00E94841DC4CCCB
:104A3000C43229F480EE91E00E94961DBDCCC532AF
:104A400009F040CD80EE91E00E949C1DB5CCC932AA
:104A500029F480EE91E00E94C01DAECCCA3278F4F9
:104A6000C73229F480EE91E00E94AE1DA5CCC83279
:104A700009F028CD80EE91E00E94BA1D9DCCCA328B
:104A800029F480EE91E00E94CC1D96CCCF3F09F036
:104A900019CD0E946B2182E0C9CCDF91CF911F918B
:104AA0000F91FF90EF90DF90CF90BF90AF909F90CD
:104AB0008F907F90089508950C945B250E945C254B
:104AC0000C945B2508950C946225CF93DF93FC0131
:104AD000C081C1508BE0C89FC02D1124DBE0DC0FEA
:104AE000D63308F0D5E36D2F8C2F0E9463256D2FF0
:104AF0008C2FDF91CF910C9462254F925F926F9231
:104B00007F928F929F92AF92BF92CF92DF92EF925D
:104B1000FF92CF936091160470911704809118044E
:104B2000909119040E94132C6B017C010E94F82BB8
:104B30004B015C0160931604709317048093180472
:104B400090931904A091ED03EDEEF3E08A2F90E02D
:104B50004FEF5FEF60E070E04C195D096E097F096F
:104B6000A91799F0218D328D2901612C712C4415E2
:104B700055056605770510F4815004C02C0D3D1DC8
:104B8000328F218F9F5F3296EBCF8093ED03809120
:104B90001A04811108C0C09146048C2F837019F04B
:104BA000C695C69501C0C0E08091DF018130D9F083
:104BB00028F0823089F18330E1F15AC01092E0018F
:104BC00080924C0490924D04A0924E04B0924F04F7
:104BD00089E2EDEEF3E0A0E5B4E001900D928A9554
:104BE000E1F781E023C08C2F0E949A21CC2309F4A5
:104BF0003FC00E945E2580EE91E0CF91FF90EF9044
:104C0000DF90CF90BF90AF909F908F907F906F90EC
:104C10005F904F900C946525C093E301809146040A
:104C200083708093E4010E94371A83E08093DF0150
:104C30001FC08091EC03882351F046E050E06CE106
:104C400070E086E494E00E9444341092EC0360919A
:104C50004C0470914D0480914E0490914F040E9439
:104C6000132C603171058105910510F01092DF0160
:104C7000CF91FF90EF90DF90CF90BF90AF909F903B
:104C80008F907F906F905F904F900895E0917102A8
:104C9000F0917202099510925004E9E6F4E08FEF6A
:104CA0009FEF8193919324E0E937F207D1F71092B7
:104CB000ED03E6E0F4E08FEF9FEF8193919324E022
:104CC000E631F207D1F70E94E70D811104C00E947E
:104CD0008F0E0E94FC1946E050E06CE170E086E423
:104CE00094E00E9426341092EC03809146048C7F5D
:104CF00011F40C94FC190895CF93C82F882391F0D8
:104D000080911A0481110EC00E949A211092E30131
:104D10008091460483708093E4010E94371A83E0F7
:104D20008093DF01C0931A04CF910895E6E4F4E084
:104D3000208191E0922790831092DF019091EC0303
:104D4000892B8093EC03089581E00C949626909132
:104D500046049370A1F0811102C0946007C08B32A9
:104D600010F0986A03C0880F880F982B9093460420
:104D70001092DF018091EC03682B6093EC0308959F
:104D800061E00C94A726682F90914604969596951D
:104D90009F5F9B3210F4892F01C081E00C94A726FD
:104DA00081E00C94C326682F9091460496959695C1
:104DB000915011F0892F01C08AE20C94A72681E05E
:104DC0000C94D32690914604937071F0809347041D
:104DD00060934804453B08F044EB409349048091BC
:104DE000EC03282B2093EC030895A6E4B4E011967D
:104DF000EC911197F0E0282F13964C91139712968F
:104E00006C91CF0108960C94E22681E00C94F52673
:104E1000A6E4B4E01196EC911197F0E0282F1396D8
:104E20004C91139712966C91CF0108970C94E2263F
:104E300081E00C940827E6E4F4E0628120E1620F4F
:104E400008F46FEF9181282F4381892F90E00C9413
:104E5000E22681E00C941B27E6E4F4E0628120E185
:104E6000621B08F460E09181282F4381892F90E034
:104E70000C94E22681E00C942C27E6E4F4E04381D4
:104E800020E1420F08F44FEF9181282F6281892F92
:104E900090E00C94E22681E00C943D27E6E4F4E0F7
:104EA000438120E1421B08F440E09181282F628178
:104EB000892F90E00C94E22681E00C944E27809399
:104EC0004A048091EC03682B6093EC0308952091D1
:104ED0004A0430E1230F08F42FEF682F822F0C943F
:104EE0005F2781E00C94672720914A0430E1231B5F
:104EF00008F420E0682F822F0C945F2781E00C9447
:104F000074270895FC01EE0FFF1F8E0F9F1FFC01F9
:104F1000E758FB4F6183408322830895E9E7F4E07B
:104F200095E0E831F90729F0818360834283339665
:104F3000F7CF089565E370E089E794E00C94432887
:104F4000882311F0FA0101C0FB0109941F93CF934C
:104F5000DF93FB011281111191C0EC010E94FE0C44
:104F60008272CB3CFCE5DF0709F472C010F5C63C49
:104F7000ECE5DE0709F453C058F4C43C9CE5D907BE
:104F800009F441C008F044C0C33CDC45C9F136C057
:104F9000C83C9CE5D90709F44CC008F445C0C93C9D
:104FA000FCE5DF0709F44AC0CA3CDC4509F44BC004
:104FB00025C0C03DECE5DE0709F45DC088F4CD3CBA
:104FC0009CE5D90709F44EC008F447C0CE3CFCE587
:104FD000DF0709F44CC0CF3CDC4509F44AC00EC0E1
:104FE000C73D9CE5D90730F4C23DDC4508F046C01A
:104FF00082E142C0CE35DD4509F440C011E03EC03B
:105000000E94A4263BC04FED56E260ED76E204C05C
:1050100040ED56E26FED76E20E94A0272FC048E1F6
:1050200057E265E077E2F8CF45E057E268E177E2E2
:10503000F3CF4AE357E269E277E2EECF49E257E283
:105040006AE377E2E9CF4CE557E26BE477E2E4CF3D
:105050004BE457E26CE577E2DFCF4EE757E261E7DA
:1050600077E2DACF41E757E26EE777E2D5CF81E02A
:1050700003C085E001C08DE00E94C026812FDF9132
:10508000CF911F9108956A9A2EB12B7F3EB1346063
:105090004FB7F894FC01CB01880F991F680F791F57
:1050A0006E0F7F1FE617F70789F0819198E03EB9F0
:1050B000000000C087FF2EB9880F000000C000C0AC
:1050C00000C02EB900C09A9591F7ECCF4FBF8FE585
:1050D00094E00197F1F700C000000895CF93DF93AB
:1050E000EC01FB018281882309F43CC1C430FDE559
:1050F000DF0760F4CB3F9CE5D90788F49E0122507E
:105100003C452431310508F02EC109C0C236EDE519
:10511000DE0729F0C63AFDE5DF0709F024C10E9449
:10512000FA0D9093350480933404C1318CE5D8078F
:1051300009F4C6C008F042C0C930ECE5DE0709F446
:105140009BC000F5C5308CE5D80709F485C078F41C
:10515000C330ECE5DE0709F478C008F07AC0C2304D
:10516000DC4509F0F5C0809134048160EFC0C730A0
:105170009CE5D90709F478C008F07AC0809134041E
:105180008061E4C0CD30FCE5DF0709F487C058F446
:10519000CB309CE5D90709F479C008F07BC0809139
:1051A000340488606FC0CF30FCE5DF0709F480C0AD
:1051B00008F082C080913404877FC8C0CE3F9CE550
:1051C000D90709F471C000F5C531FCE5DF0709F422
:1051D00085C068F4C3319CE5D90709F475C008F0AF
:1051E00095C00E94AB07809134048F77AFC0CC3F4D
:1051F000FCE5DF07A9F108F054C0CB3FDC4509F01E
:10520000A7C08091350440C0C230EDE5DE0709F447
:1052100089C058F4C1158DE5D80709F45AC008F0C3
:1052200069C08091350482602FC0C236EDE5DE078B
:1052300009F47CC0C63AFDE5DF0709F481C0C3303C
:10524000DD4509F085C080E06EC080913404826045
:105250007DC08091340416C080913404886076C08B
:105260008091350482604FC08091340480626EC0AA
:105270008091340480646AC00E94AB07809134043A
:10528000806864C0846062C081603DC080913404E5
:105290008E7F5CC0809134048D7F58C0809134042F
:1052A00016C08091350418C0809135048D7F2BC0C5
:1052B000809134048F7E4AC0809134048F7D46C033
:1052C000809134048F7B42C080913404877F8B7F30
:1052D0003DC0809135048D7F8E7F15C08091340450
:1052E00082FB222720F991E0922790FB82F990FB24
:1052F00083F92CC080913504982F909591708E7F02
:10530000892B90FB81F98093350422C00E94AB0762
:105310008091340487FB222720F991E0922790FBAB
:1053200087F914C081E00E94910E12C0809134046C
:1053300084FB222720F991E0922790FB84F906C094
:1053400080913404982F909590FB80F980933404D9
:1053500080913404909135040E940B0E0E94AB079B
:1053600080E001C081E0DF91CF910895CF93DF937A
:1053700086319C4541F5EB010E94FE0C982F8A81F5
:105380002091D5013091D601882379F09A7A81E075
:1053900009F480E080931B04911102C069E201C00E
:1053A00065E3C9010E94492B0AC080911B04811149
:1053B00002C069E201C065E3C9010E944B2B0E9453
:1053C000400D80E001C081E0DF91CF9108950F93FF
:1053D0001F93CF93DF93C42FD22FFC0182818823A8
:1053E000C9F040931E040E94EC2B90931D048093FF
:1053F0001C0480E28C0F883008F057C0C77081E031
:1054000001C0880FCA95EAF7DF91CF911F910F91E4
:105410000C94080580911E04481330C080911C0430
:1054200090911D040E94042C883C910538F510E2EF
:105430001D0FCD17B9F080E28C0F883040F4C77093
:1054400081E001C0880FCA95EAF70E940F05183065
:1054500028F581E09D2F977001C0880F9A95EAF793
:105460000E940805802F0E94FF041830F0F4D770C6
:1054700081E001C0880FDA95EAF70AC080E28C0F5C
:10548000883098F4C77081E001C0880FCA95EAF7A8
:10549000DF91CF911F910F910C940F05802FDF9119
:1054A000CF911F910F910C94FF04DF91CF911F9129
:1054B0000F9108950F939C01CB01243F4CE53407D5
:1054C00031F188F4293DFCE53F07D9F02A3D4CE550
:1054D000340779F1283D3C45A9F506E221EE41EE7D
:1054E00068ED7CE52BC0263FFCE53F07E1F0A8F026
:1054F000273F3C4539F507E225EE46EE67EF7CE5B0
:105500001DC007E225EE45EE69ED7CE517C006E219
:1055100021EE40EE64EF7CE511C007E225EE44EE9B
:1055200065EF7CE50BC006E221EE42EE66EF7CE51E
:1055300005C008E221E045EE6AED7CE50E94E7291E
:1055400080E008C0FC018281882319F010921E04BB
:1055500001C081E00F91089590937B0280937A02BD
:10556000089590932404809323040895E0912304E4
:10557000F0912404309721F00190F081E02D0994FE
:1055800080E00895E0912304F0912404309721F005
:105590000280F381E02D09940895E0912304F091B5
:1055A0002404309739F022E0DC012C930480F5814B
:1055B000E02D0994089520912104309122042817A8
:1055C000390771F09093220480932104E091230421
:1055D000F0912404309721F00680F781E02D0994A2
:1055E000089520911F04309120042817390771F085
:1055F0009093200480931F04E0912304F0912404ED
:10560000309721F00084F185E02D09940895FC0184
:10561000329697E080E0915029F021912223D9F32E
:105620008F5FF9CF0895662349F0FC013296089602
:105630002191621729F0E817F907D1F780E0089562
:1056400081E008959C01FC0132969FEF80E041913A
:10565000461789F09F3F19F4411101C0982F8F5FC1
:105660008630A9F79F3F39F0F901E90FF11D97FD49
:10567000FA956283089508959C012A5F3F4FFC01CB
:105680004281461301C01282019682179307B9F72F
:1056900008950C94222B0C943C2B029626E0FC01DE
:1056A00011922A95E9F7089508950C94542B83E0FC
:1056B000809325040C94552B811102C081E001C018
:1056C00082E0809325040C94552B0C945C2B81E094
:1056D000809325040C94552B0C94672B08950C94FF
:1056E0006E2B0C946E2B0C946E2BCF930E94732B0D
:1056F0000E949E120E94712BC0E08C2F0E94C81144
:10570000892B29F4CF5FC430C1F780E001C081E06C
:10571000CF91089508951F920F920FB60F92112402
:105720008F939F93AF93BF9380912604811113C0F1
:105730008091180590911905A0911A05B0911B054B
:105740004196A11DB11D8093180590931905A09352
:105750001A05B0931B05BF91AF919F918F910F9048
:105760000FBE0F901F90189580912005843031F165
:105770000E9453031092260420E488E190E00FB6C3
:10578000F894A895809360000FBE2093600083B7C3
:10579000817F846083BF83B7816083BF789488955D
:1057A00083B78E7F83BF0FB6F894A8958091600071
:1057B000886180936000109260000FBE08950E947F
:1057C000AB070C945C0382E084BD93E095BD9AEF37
:1057D00097BD80936E0008952FB7F89480911805B7
:1057E00090911905A0911A05B0911B052FBF08953E
:1057F0002FB7F894609118057091190580911A05DA
:1058000090911B052FBF08959C014FB7F89480918C
:10581000180590911905A0911A05B0911B054FBF6D
:10582000821B930B0895CF92DF92EF92FF922FB7D6
:10583000F894C0901805D0901905E0901A05F090E2
:105840001B052FBFA7019601261B370B480B590BD1
:10585000CA01B901FF90EF90DF90CF90089578943E
:105860001F920F920FB60F9211248F939F93AF93B5
:10587000BF938091180590911905A0911A05B091D8
:105880001B050196A11DB11D809318059093190564
:10589000A0931A05B0931B05BF91AF919F918F9173
:1058A0000F900FBE0F901F90189581E08093E0003D
:1058B00080E28093D8001092C9008FE19EE40197A6
:1058C000F1F700C0000087E090EBDC018093290530
:1058D00090932A05A0932B05B0932C059CE088E1BA
:1058E0000FB6F894A895809360000FBE9093600067
:1058F000FFCF809132040895089522E02093E900BB
:105900002FEF3091E800215035FD06C035ED3A9576
:10591000F1F700002111F5CF2091E80025FF0BC021
:1059200040E050E066E070E00E94A72E8091E80021
:105930008E778093E8000895CF93DF9321E0209342
:10594000E9002FEF3091E800215035FD06C035ED1C
:105950003A95F1F700002111F5CF2091E80025FFDD
:1059600014C0EC0140E050E068E070E00E94A72E17
:105970008091E8008E778093E80088E0FE01AAE23B
:10598000B4E001900D928A95E1F7DF91CF910895EF
:105990008093270470932904609328048091200544
:1059A000843001F582E08093E9008FEF9091E80068
:1059B000815095FD06C095ED9A95F1F70000811193
:1059C000F5CF8091E80085FF0DC040E050E063E036
:1059D00070E087E294E00E94A72E8091E8008E7725
:1059E0008093E8000895BC0184E00C94C82CBC01AD
:1059F00083E00C94C82C80911F05811109C00E947E
:105A000038300E9495308091E20084608093E200FB
:105A1000089510921F0508950C946C2B60911C053D
:105A200081E0611101C080E00C94572B909120051A
:105A300081E0943009F080E060911C050C945C2BAF
:105A400042E061EC81E00E94B12F42E261EC82E031
:105A50000E94B12F9091200581E0943009F080E000
:105A600060911C050C94652B80912205833009F40C
:105A700061C030F4813071F0823009F49AC0089529
:105A80008A3009F486C08B3009F46CC0893009F083
:105A9000A8C020C080912105813A09F0A2C0809160
:105AA000E800877F8093E800809125059091260586
:105AB000892B21F468E08AE294E003C060E080E092
:105AC00090E070E00E94F22E8091E8008B77809346
:105AD000E800089580912105813209F082C080910B
